:1000000010C02AC029C028C027C026C068C024C08C
:1000100023C022C021C020C01FC01EC01DC01CC0E4
:100020001BC011241FBECFE5D1E0DEBFCDBF10E065
:10003000A0E6B0E0ECE2F1E002C005900D92A2363D
:10004000B107D9F720E0A2E6B0E001C01D92A836C2
:10005000B207E1F70FD068C0D3CF8EB588608EBDF0
:10006000619A789488E09DE39BBD8ABD8EB58360DC
:100070008EBD0895D29AD098D89AD19AEEDF78940E
:10008000E2E6F0E0C89B22C040916200509163001C
:100090006091640070916500209166003091670066
:1000A0008091600090916100820F931F092E000CD7
:1000B000AA0BBB0B84179507A607B70718F7509331
:1000C000670040936600DA9AD99ADCCFDA98D9981B
:1000D000808191819093670080936600D3CF1F92B7
:1000E0000F920FB60F9211248F939F93AF93BF93EC
:1000F0008091620090916300A0916400B0916500CE
:100100000196A11DB11D8093620090936300A0939E
:100110006400B0936500BF91AF919F918F910F9054
:0C0120000FBE0F901F901895F894FFCFB1
:02012C000300CE
:00000001FF
